:100000000C9434000C9449000C9449000C94490061
:100010000C9449000C9449000C9449000C9449003C
:100020000C9449000C9449000C9449000C9449002C
:100030000C9449000C9449000C9449000C9449001C
:100040000C9449000C9449000C9449000C9449000C
:100050000C9449000C9449000C9449000C944900FC
:100060000C9449000C94490011241FBECFEFD8E036
:10007000DEBFCDBF11E0A0E0B1E0EAE1F1E002C0F7
:1000800005900D92AA30B107D9F70E944B000C944D
:100090008B000C940000CF93DF93CDB7DEB72A9787
:1000A0000FB6F894DEBF0FBECDBF8FEF84B98AB90B
:1000B0008AE0E0E0F1E0DE01119601900D928A9570
:1000C000E1F7389820E030E080E090E03099FECF12
:1000D0004FE956E861E0415050406040E1F700C010
:1000E0000000E1E0F0E0EC0FFD1FE80FF91F408198
:1000F00045B9E1E0F0E0EC0FFD1FE20FF31F408196
:100100004BB901968A30910509F72F5F3F4F2A308E
:0A0110003105D1F6D7CFF894FFCFE8
:0A011A003F065B4F666D7C077F6FA8
:00000001FF
