:1000000012C024C023C022C021C020C01FC01EC0F7
:100010001DC01CC01BC01AC019C018C017C016C014
:1000200015C014C013C011241FBECFE5D4E0DEBF3D
:10003000CDBF10E0A0E6B0E0E8EFF0E002C0059030
:100040000D92A836B107D9F702D054C0D9CFCF93BB
:10005000DF93CDB7DEB728970FB6F894DEBF0FBE9B
:10006000CDBF8FEF87BB28E0E0E6F0E0CE01019640
:10007000DC0101900D922A95E1F7A098A39818BA97
:1000800028B3209528BB2FE936E841E021503040C5
:100090004040E1F700C0000033B323B330FFF0CF9E
:1000A00023FDEECFAFE9B6E821E0A150B0402040FB
:1000B000E1F700C0000018BAFE013996AC01DA0180
:1000C0002D91AD0128BBAFE4B3EC1197F1F700C05F
:1000D00000004E175F0799F718BA208128BBAFE4DC
:1000E000B3EC1197F1F700C000003197E817F9075A
:0800F000A1F7C6CFF894FFCF81
:0800F800010204081020408001
:00000001FF
