:100000000C9434000C9449000C9449000C94490061
:100010000C9449000C9449000C9449000C9449003C
:100020000C9449000C9449000C9449000C9449002C
:100030000C9449000C9449000C9449000C9449001C
:100040000C9449000C9449000C9449000C9449000C
:100050000C9449000C9449000C9449000C944900FC
:100060000C9449000C94490011241FBECFEFD8E036
:10007000DEBFCDBF11E0A0E0B1E0EEE4F6E002C0EB
:1000800005900D92A232B107D9F70E9447010C9456
:1000900025030C94000095B19F70282F207F922B90
:1000A00095B92898299A0000299832E43A95F1F7F1
:1000B00000C025B12F7030E1839FC0011124822B35
:1000C00085B9299A0000299883EF91E00197F1F70B
:1000D00000C0000008958FEF84B987E893E101978D
:1000E000F1F700C0000083E30E944B0082E30E940E
:1000F0004B0088E20E944B008CE00E944B0086E09F
:100100000E944B0081E00C944B0095B19F70282F0A
:10011000207F922B95B9289A299A0000299832E4D9
:100120003A95F1F700C025B12F7030E1839FC001EF
:100130001124822B85B9299A0000299883EF91E038
:100140000197F1F700C000000895CF93DF93EC0111
:100150008991882319F00E948500FACFDF91CF9111
:10016000089581E00E944B0083EF91E00197F1F741
:1001700000C0000080E80C944B00CF93DF93EA01AD
:10018000811105C0603158F4862F806806C0813027
:1001900031F4603120F4862F806C0E944B00CE0138
:1001A000DF91CF910C94A50081E08BB94C993FC0B1
:1001B0004D9940C04E9941C04F9942C089EF90E09F
:1001C0000197F1F700C0000082E08BB94C993BC069
:1001D0004D993CC04E993DC04F993EC089EF90E08B
:1001E0000197F1F700C0000084E08BB94C9937C04B
:1001F0004D9938C04E9939C04F993AC089EF90E077
:100200000197F1F700C0000088E08BB94C9933C02A
:100210004D9934C04E9935C04F9936C089EF90E062
:100220000197F1F700C0000080E090E0089580E0C1
:1002300091E0089582E091E0089584E091E00895CE
:1002400086E091E0089588E091E008958AE091E0E9
:1002500008958CE091E008958EE091E0089582E1A8
:1002600091E0089580E191E008958FE191E0089593
:100270008DE191E008958BE191E0089589E191E0AD
:10028000089586E191E0089584E191E00895CF9387
:10029000DF93CDB7DEB72F970FB6F894DEBF0FBE52
:1002A000CDBF8FEF84B987B98FE08AB90E946B0008
:1002B000A12CB12CE12CF12CC12CD12C00E010E0B0
:1002C00045E0742E0E94D400892BE1F30E94D400F3
:1002D0008451914071F444E151E0602F8C2D0E94D3
:1002E000BD003FEFE31AF30A0F5F1F4FAA24A39448
:1002F000B12C0E94D4008E50914071F44EE051E038
:10030000602F8C2D0E94BD003FEFE31AF30A0F5FB0
:100310001F4F22E0A22EB12C0E94D4008D5191409B
:1003200071F44DE151E0602F8C2D0E94BD003FEF34
:10033000E31AF30A0F5F1F4F93E0A92EB12C0E941E
:10034000D4008650914071F446E051E0602F8C2D2E
:100350000E94BD003FEFE31AF30A0F5F1F4F84E0D6
:10036000A82EB12C0E94D4008B519140A1F40E9480
:10037000B10065E171E0CE0101960E94E10265E104
:1003800071E0CE0106960E94E102E12CF12CC12C15
:10039000D12C00E010E00E94D4008651914009F079
:1003A0004DC08FEFC81AD80ACE0101960E94B8023C
:1003B0004C01CE0106960E94B8029C0191E0A9165C
:1003C000B10441F44AE0BE01655F7F4FC401820F72
:1003D000931F2AC082E0A816B10461F44AE0BE016E
:1003E000655F7F4F829EC001839E900D929E900D0F
:1003F00011241AC093E0A916B10441F44AE0BE01E9
:10040000655F7F4FC401821B930B0EC084E0A8166A
:10041000B10409F07BC0C401B9010E949002CB0174
:100420004AE0BE01655F7F4F0E94E80289EC0E94AE
:100430004B00CE010B960E94A50068C00E94D4001C
:100440008651914009F462C00E94D40084519140C9
:1004500009F45CC00E94D4008D51914009F456C04B
:100460000E94D4008E50914009F450C00E94D400E4
:100470008650914009F44AC00E94D40082519140B4
:10048000D9F40E94D400AC01602F8C2D0E94BD00D5
:100490000F5F1F4F0E94D4007E9C90017F9C300D07
:1004A0001124BC01C90121E030E02C0F3D1F820F57
:1004B000931F0E94D6022AC00E94D400805191400E
:1004C00001F30E94D4008F519140D9F20E94D400D0
:1004D00088509140B1F20E94D4008A50914089F234
:1004E0000E94D4008C50914061F20E94D400805050
:1004F000914039F20E94D4008250914009F4C1CF5A
:100500000E94D4008450914009F4BBCF3FE58AEEAD
:1005100090E0315080409040E1F700C00000D2CE22
:1005200097FB072E16F4009407D077FD09D00E94A0
:10053000A40207FC05D03EF4909581959F4F089545
:10054000709561957F4F0895AA1BBB1B51E107C0B1
:10055000AA1FBB1FA617B70710F0A61BB70B881F53
:10056000991F5A95A9F780959095BC01CD010895E2
:10057000FC0188279927E89421912032E9F329305A
:1005800010F02E30C8F32B3241F02D3239F468943C
:1005900004C00E94F302820F911D219120532A3042
:1005A000C0F31EF4909581959F4F0895FB01DC01E7
:1005B0000D900020E9F7119701900D920020E1F7CE
:1005C0000895FB01DC0101900D920020E1F70895F0
:1005D000BB274A3031F4992322F4BDE290958195EE
:1005E0009F4F0C94FC027AE0979F902D879F802D5F
:1005F000910D11240895BB27FB015527AA27880FC9
:10060000991FAA1FA41710F0A41B83955051B9F786
:10061000A05DAA3308F0A95DA193009779F7B11105
:10062000B1931192CB010C941503DC01FC01672FEF
:1006300071917723E1F7329704C07C916D937083B9
:0E0640006291AE17BF07C8F30895F894FFCF7C
:10064E003700380039002F003400350036005800CE
:10065E00320031002B00657100300063002D003335
:02066E0000008A
:00000001FF
