S01700004763634170706C69636174696F6E342E7372656358
S113000012C025C03DC022C021C020C01FC01EC0D8
S11300101DC01CC01BC01AC019C018C017C016C010
S113002015C014C013C011241FBECFE5D4E0DEBF39
S1130030CDBF10E0A0E6B0E0ECE7F5E002C005902B
S11300400D92AC36B107D9F795D096C2D9CF1F928D
S11300500F920FB60F9211248F939F93F89480916F
S11300606A0090916B00019690936B0080936A00F4
S113007078949F918F910F900FBE0F901F901895B9
S11300801F920F920FB60F9211248F939F93F8949F
S113009080916A0090916B00019790936B0080931C
S11300A06A0078949F918F910F900FBE0F901F90CC
S11300B018958F929F92AF92BF92CF92DF92EF9258
S11300C0FF926AE070E031D2072E000C880B990B86
S11300D015D16B017C0120E030E040E85FE3D7D02C
S11300E0811107C0E0E6F0E0818185BB808188BB97
S11300F038C020E030E040E85FE3C701B60162D0D9
S11301004B015C0120E030E0A901A8D118168CF461
S11301108091610085BB20E030E040E251E4C501FC
S1130120B401A0D1B8D0FB01E05AFF4F808188BB55
S113013018C020E030E0A901C501B401A8D088238B
S113014084F48091600085BB20E030E040E251E41B
S1130150C701B60187D19FD0FB01E05AFF4F8081D0
S113016088BBFF90EF90DF90CF90BF90AF909F90AF
S11301708F9008958FEF87BB84BB85B78E7F85BF33
S113018085B7826085BF85B78B7F85BF85B788605B
S113019085BF8BB780648BBF8BB780688BBF789427
S11301A0C0E00DC08C2F90E084DF2FE58AEE90E054
S11301B0215080409040E1F700C00000CF5FCF3075
S11301C088F3EECF5058BB27AA270ED00DC1FED01E
S11301D030F003D120F031F49F3F11F41EF4F3C04A
S11301E00EF4E095E7FBE9C0E92F0FD180F3BA17CD
S11301F0620773078407950718F071F49EF527C109
S11302000EF4E0950B2EBA2FA02D0B01B90190012D
S11302100C01CA01A0011124FF27591B99F0593F71
S113022050F4503E68F11A16F040A22F232F342FB9
S11302304427585FF3CF469537952795A795F04007
S11302405395C9F77EF41F16BA0B620B730B840B1C
S1130250BAF09150A1F0FF0FBB1F661F771F881FD4
S1130260C2F70EC0BA0F621F731F841F48F487952C
S113027077956795B795F7959E3F08F0B3CF93951B
S1130280880F08F09927EE0F97958795089571D0F8
S113029008F481E0089504D06894B111D9C0089598
S11302A0BCD088F09F5790F0B92F9927B751A0F090
S11302B0D1F0660F771F881F991F1AF0BA95C9F7F6
S11302C012C0B13081F0C3D0B1E00895C0C0672F2F
S11302D0782F8827B85F39F0B93FCCF386957795A6
S11302E06795B395D9F73EF490958095709561958F
S11302F07F4F8F4F9F4F0895E89409C097FB3EF4BA
S113030090958095709561957F4F8F4F9F4F99235E
S1130310A9F0F92F96E9BB279395F69587957795DC
S11303206795B795F111F8CFFAF4BB0F11F460FF9C
S11303301BC06F5F7F4F8F4F9F4F16C0882311F0F4
S113034096E911C0772321F09EE8872F762F05C008
S1130350662371F096E8862F70E060E02AF09A95A3
S1130360660F771F881FDAF7880F9695879597F998
S11303700895990F0008550FAA0BE0E8FEEF161632
S11303801706E807F907C0F012161306E407F50785
S113039098F0621B730B840B950B39F40A2661F0F9
S11303A0232B242B252B21F408950A2609F4A1409C
S11303B0A6958FEF811D811D089597F99F6780E8A9
S11303C070E060E008959FEF80EC089500240A94A3
S11303D01616170618060906089500240A9412161C
S11303E01306140605060895092E0394000C11F44F
S11303F0882352F0BB0F40F4BF2B11F460FF04C0FC
S11304006F5F7F4F8F4F9F4F089557FD9058440F54
S1130410551F59F05F3F71F04795880F97FB991F5F
S113042061F09F3F79F0879508951216130614061C
S1130430551FF2CF4695F1DF08C0161617061806A9
S1130440991FF1CF86957105610508940895E89484
S1130450BB2766277727CB0197F908958ADF08F42D
S11304608FEF08950BD0C0CFB1DF28F0B6DF18F0BE
S1130470952309F0A2CFA7CF1124EACFC6DFA0F3BA
S1130480959FD1F3950F50E0551F629FF001729F25
S1130490BB27F00DB11D639FAA27F00DB11DAA1F44
S11304A0649F6627B00DA11D661F829F2227B00D91
S11304B0A11D621F739FB00DA11D621F839FA00D1C
S11304C0611D221F749F3327A00D611D231F849F6C
S11304D0600D211D822F762F6A2F11249F575040C3
S11304E08AF0E1F088234AF0EE0FFF1FBB1F661F5E
S11304F0771F881F91505040A9F79E3F510570F017
S11305005CCFA6CF5F3FECF3983EDCF386957795FE
S11305106795B795F795E7959F5FC1F7FE2B880F11
S1130520911D9695879597F9089597FB072E16F4D4
S1130530009406D077FD08D00BD007FC05D03EF41C
S1130540909581959F4F0895709561957F4F08957B
S1130550AA1BBB1B51E107C0AA1FBB1FA617B707E5
S113056010F0A61BB70B881F991F5A95A9F7809501
S10F05709095BC01CD010895F894FFCFD4
S10F057C3F065B4F666D7C077F6F0F002D
S9030000FC
