S01700004763634170706C69636174696F6E312E737265635B
S113000012C024C023C022C021C020C01FC01EC0F3
S11300101DC01CC01BC01AC019C018C017C016C010
S113002015C014C013C011241FBECFE5D4E0DEBF39
S1130030CDBF10E0A0E6B0E0E0EEF0E002C0059035
S11300400D92A836B107D9F702D048C0D9CFCF93C3
S1130050DF93CDB7DEB728970FB6F894DEBF0FBE97
S1130060CDBF8FEF87BB88E0E0E6F0E0DE011196BC
S113007001900D928A95E1F780E090E012C0E1E0F2
S1130080F0E0EC0FFD1FE80FF91F208128BB2FE3E0
S11300903DE043E0215030404040E1F700C0000023
S11300A00196883091055CF318BA88E090E012C09C
S11300B0E1E0F0E0EC0FFD1FE80FF91F208128BB01
S11300C02FE33DE043E0215030404040E1F700C0E1
S11300D000000197181619065CF3CECFF894FFCFF1
S10B00E0010204081020408015
S9030000FC
