S01700004763634170706C69636174696F6E322E737265635A
S11300000C9434000C9449000C9449000C9449005D
S11300100C9449000C9449000C9449000C94490038
S11300200C9449000C9449000C9449000C94490028
S11300300C9449000C9449000C9449000C94490018
S11300400C9449000C9449000C9449000C94490008
S11300500C9449000C9449000C9449000C944900F8
S11300600C9449000C94490011241FBECFEFD8E032
S1130070DEBFCDBF11E0A0E0B1E0ECE7F1E002C0EB
S113008005900D92A830B107D9F70E944B000C944B
S1130090BC000C940000CF93DF93CDB7DEB7289754
S11300A00FB6F894DEBF0FBECDBF8FEF84B988E0E2
S11300B0E0E0F1E0DE01119601900D928A95E1F7FE
S11300C087B18E7F87B987B1877F87B915B885B126
S11300D0809585B92FE936E881E021503040804091
S11300E0E1F700C0000096B186B18870492F4170D5
S11300F090FFEDCF8111EBCF9FE9E6E8F1E091505D
S1130100E040F040E1F700C0000015B820E030E026
S113011014C04130A9F4811113C0E1E0F0E0EC0F08
S1130120FD1FE20FF31F908195B9EFE4F3EC3197D3
S1130130F1F700C000002F5F3F4F283031054CF32A
S113014015B828E030E014C0413009F68111BFCF62
S1130150E1E0F0E0EC0FFD1FE20FF31F908195B991
S1130160EFE4F3EC3197F1F700C0000021503109BE
S10F0170121613064CF3ABCFF894FFCF2B
S10B017C010204081020408078
S9030000FC
