S01200004C43442D4472697665722E73726563A6
S11300000C9434000C9449000C9449000C9449005D
S11300100C9449000C9449000C9449000C94490038
S11300200C9449000C9449000C9449000C94490028
S11300300C9449000C9449000C9449000C94490018
S11300400C9449000C9449000C9449000C94490008
S11300500C9449000C9449000C9449000C944900F8
S11300600C9449000C94490011241FBECFEFD8E032
S1130070DEBFCDBF11E0A0E0B1E0E6EBF4E002C0EA
S113008005900D92A032B107D9F70E9461010C943A
S113009059020C94000095B19F70282F207F922B59
S11300A095B995B19E7F95B995B1926095B90000C7
S11300B095B19D7F95B932E43A95F1F700C025B129
S11300C030E1839FC0011124922F9F70892B85B941
S11300D085B1826085B9000085B18D7F85B983EFD4
S11300E091E00197F1F700C0000008958FEF84B903
S11300F087E893E10197F1F700C0000083E30E94D1
S11301004B0082E30E944B0088E20E944B008CE08B
S11301100E944B0086E00E944B0081E00E944B004D
S1130120089595B19F70282F207F922B95B995B192
S1130130916095B995B1926095B9000095B19D7F94
S113014095B932E43A95F1F700C025B130E1839FC7
S1130150C0011124922F9F70892B85B985B18260CB
S113016085B9000085B18D7F85B983EF91E0019752
S1130170F1F700C0000008950F931F93CF93DF930E
S11301808C01C0E0D0E003C00E9491002196F801E8
S1130190EC0FFD1F80818111F7CFDF91CF911F916B
S11301A00F910895CF93DF93EA01811108C0603164
S11301B030F4862F8F7080680E944B0009C0813014
S11301C039F4603128F4862F8F70806C0E944B00C4
S11301D0CE010E94BC00DF91CF91089581E08BB9DC
S11301E04C993FC04D9940C04E9941C04F9942C06F
S11301F083EC99E00197F1F700C0000082E08BB92D
S11302004C993BC04D993CC04E993DC04F993EC05E
S113021083EC99E00197F1F700C0000084E08BB90A
S11302204C9937C04D9938C04E9939C04F993AC04E
S113023083EC99E00197F1F700C0000088E08BB9E6
S11302404C9933C04D9934C04E9935C04F9936C03E
S113025083EC99E00197F1F700C0000080E090E0A2
S1130260089580E091E0089582E091E0089584E0AB
S113027091E0089586E091E0089588E091E0089582
S11302808AE091E008958CE091E008958EE091E099
S1130290089580E191E0089582E191E0089584E178
S11302A091E0089586E191E0089588E191E0089550
S11302B08AE191E008958CE191E008958EE191E066
S11302C00895CF93DF93CDB7DEB72F970FB6F89489
S11302D0DEBF0FBECDBF8FEF84B987B98FE08AB977
S11302E00E94760087EA91E60197F1F700C00000CA
S11302F0E12CF12C00E010E00E94EE00892BE1F3E8
S11303000E94EE008E51914079F00E94EE008651D9
S1130310914051F00E94EE008650914029F00E94D5
S1130320EE008E50914069F40E94EE00AC01602F03
S113033080E00E94D2008FEFE81AF80A0E94EE00D3
S1130340D82E0E94EE008C519140E9F4CE01019622
S11303500E94F3015C01CE0106960E94F3012D2D4B
S113036030E02E51314079F44AE0BE01655F7F4FA1
S11303708A0D9B1D0E941C02AE01455F5F4F67E022
S113038081E00E94D2000E94EE00AC01602F80E068
S11303900E94D2000F5F1F4F0E94EE009701220FB0
S11303A0331F220F331F2E0D3F1DBC0181E090E04F
S11303B08C0F9D1F820F931F0E941102AE014F5F8D
S11303C05F4F60E081E00E94D200AE014A5F5F4F60
S11303D064E081E00E94D20083E294EF0197F1F798
S11303E000C0000089CFFC0188279927E894219157
S11303F02032E9F3293010F02E30C8F32B3241F0CB
S11304002D3239F4689404C00E942702820F911D92
S1130410219120532A30C0F31EF4909581959F4F6B
S11304200895FB01DC010D900020E9F7119701907C
S11304300D920020E1F70895BB274A3031F4992347
S113044022F4BDE2909581959F4F0C9430027AE09E
S1130450979F902D879F802D910D11240895BB2780
S1130460FB015527AA27880F991FAA1FA41710F06C
S1130470A41B83955051B9F7A05DAA3308F0A95D78
S1130480A193009779F7B111B1931192CB010C9418
S11304904902DC01FC01672F71917723E1F7329760
S11304A004C07C916D9370836291AE17BF07C8F34B
S10904B00895F894FFCF4B
S11304B63700380039002F00340035003600580064
S11304C63100320033002D00630030003D002B0064
S9030000FC
