:1000000012C025C042C022C021C020C01FC01EC0D7
:100010001DC01CC01BC01AC019C018C017C016C014
:1000200015C014C013C011241FBECFE5D4E0DEBF3D
:10003000CDBF10E0A0E6B0E0EAE4F1E002C0059038
:100040000D92AC36B107D9F752D07DC0D9CF1F92EF
:100050000F920FB60F9211248F939F93F894809173
:100060006A0090916B0001968031910514F08FE049
:1000700090E090936B0080936A0078949F918F91A9
:100080000F900FBE0F901F9018951F920F920FB6F2
:100090000F9211248F939F93F89480916A0090910E
:1000A0006B00019790936B0080936A0078949F9106
:1000B0008F910F900FBE0F901F9018958A30910569
:1000C00031F48091610085BB809160000EC0FC011D
:1000D000E05AFF4F0B972CF08091610085BB3A9757
:1000E00003C08091600085BB808188BB08958FEF3D
:1000F00087BB84BB8F9A8E9A85B78E7F85BF85B765
:10010000826085BF85B78B7F85BF85B7886085BFD7
:100110008BB780648BBF8BB780688BBF7894C0E847
:10012000D0E480916A0090916B00803191052CF4AD
:100130000F9711F0D2BB01C0C2BB80916A009091B1
:0A0140006B00BCDFEECFF894FFCF98
:0C014A003F065B4F666D7C077F6F0F0067
:00000001FF
